:100000000C9434000C9451000C9451000C94510049
:100010000C94EA010C9451000C9451000C94510082
:100020000C9451000C9451000C9451000C9451000C
:100030000C9451000C9451000C9451000C945100FC
:100040000C9451000C9451000C9451000C945100EC
:100050000C9451000C9485010C9451000C945100A7
:100060000C9451000C94510011241FBECFEFD8E026
:10007000DEBFCDBF11E0A0E0B1E0E6E5FCE002C0EC
:1000800005900D92A230B107D9F721E0A2E0B1E0CE
:1000900001C01D92AE30B207E1F70E943F010C94FF
:1000A00029060C940000ECE7F0E010828081806467
:1000B0008083808180628083EAE7F0E01082808123
:1000C000806880838081886080838081876080836E
:1000D00010927B00AEE7B0E08C918F608C938081B2
:1000E000806480830895682F70E080E090E00E9433
:1000F000180520E030E04FE753E40E9477042CEE2F
:1001000031ED40EE52E40E94A60528E431EE45E1CF
:1001100052E40E940B040E94E904CB010895682F69
:1001200070E080E090E00E94180520E030E04FE7AA
:1001300053E40E9477042CEE31ED40EE52E40E942D
:10014000A60528E431EE45E152E40E940B040E942A
:10015000E904CB010895682F70E080E090E00E94F0
:10016000180520E030E04FE753E40E94770420E0D8
:1001700030E040ED51E40E94A60520E030E040EA86
:1001800050E40E940B040E94E904862F0895682F12
:1001900070E080E090E00E94180520E030E04FE73A
:1001A00053E40E94770420E030E040ED51E40E94E7
:1001B000A60520E030E040EA50E40E940B040E94D3
:1001C000E904862F089587B18B7F87B985B1846054
:1001D00085B987B1877F87B985B1886085B987B1CF
:1001E0008D7F87B988B1826088B98AB1846F8AB9F6
:1001F00084B1806384B9E8E6F0E080818760808321
:10020000ECE6F0E080818E608083089580910001AB
:1002100081110AC085B1806285B98BB18F7B8BB9A2
:1002200085B18F7E85B90895813039F48BB18064B2
:100230008BB985B18F7C85B90895823051F485B131
:10024000806185B98BB18F7B8BB985B18F7D85B985
:100250000895833049F48BB180648BB985B1806295
:1002600085B985B18F7E85B90895F89417B80E9435
:10027000C2030E94EB030E94530078940895E1E6C4
:10028000F0E080E8808382E080830E9435010E9454
:10029000E300EAE7F0E08081806480832FEF84E36D
:1002A0009CE0215080409040E1F700C00000809128
:1002B00003018111EECF8BB184608BB98BB18F7646
:1002C0008BB980910D010E94730090930C01809373
:1002D0000B010E94E10380910A010E948F0080932C
:1002E000090190E00E94E603809108010E94AB00A2
:1002F000809307010E940404809106010E94C700B8
:10030000809305010E940704C4CF1F920F920FB67D
:100310000F9211248F93EF93FF93EAE7F0E080812F
:100320008F7780838091040181110FC0ECE7F0E0AA
:100330008081876080838091790080930D01809116
:1003400004018F5F8093040132C0813081F4ECE7B7
:10035000F0E08081887F866080838091790080933F
:100360000A01809104018F5F8093040120C08230D4
:1003700081F4ECE7F0E08081887F85608083809164
:10038000790080930801809104018F5F80930401BC
:100390000EC0833061F4ECE7F0E08081887F8460F8
:1003A0008083809179008093060110920401EAE72E
:1003B000F0E0808180688083808180648083808198
:1003C00080618083FF91EF918F910F900FBE0F900E
:1003D0001F9018951F920F920FB60F9211242F9312
:1003E0003F934F935F936F937F938F939F93AF93BD
:1003F000BF93EF93FF93339941C02FE788E391E0D8
:10040000215080409040E1F700C00000339936C091
:100410008091030181110CC08BB184608BB98BB1C9
:100420008F768BB9809103018F5F8093030126C083
:10043000813061F48BB180688BB98BB18B7E8BB9C5
:10044000809103018F5F8093030118C0823061F4B3
:100450008BB180618BB98BB18B778BB980910301A4
:100460008F5F809303010AC0833041F48BB18468AD
:100470008BB98BB18F7E8BB91092030132991AC060
:100480002FE788E391E0215080409040E1F700C0E1
:10049000000032990FC080910001843031F481E076
:1004A000809300010E94060105C08F5F80930001C8
:1004B0000E940601319955C1809103018111A6C0A6
:1004C00080910001813029F5609188007091890048
:1004D00080E090E00E941B0660918A0070918B0082
:1004E00081E090E00E941B066091B30082E090E002
:1004F0000E941B066091B40083E090E00E941B06FE
:100500002FE78AE196E0215080409040E1F700C05B
:10051000000080910001823029F56091880070917F
:10052000890084E090E00E941B0660918A0070912F
:100530008B0085E090E00E941B066091B30086E08E
:1005400090E00E941B066091B40087E090E00E945A
:100550001B062FE78AE196E0215080409040E1F7AA
:1005600000C0000080910001833029F5609188006F
:100570007091890088E090E00E941B0660918A00DB
:1005800070918B0089E090E00E941B066091B3009F
:100590008AE090E00E941B066091B4008BE090E03E
:1005A0000E941B062FE78AE196E021508040904090
:1005B000E1F700C0000080910001843009F0D1C053
:1005C00060918800709189008CE090E00E941B0689
:1005D00060918A0070918B008DE090E00E941B0674
:1005E0006091B3008EE090E00E941B066091B40021
:1005F0008FE090E00E941B062FE78AE196E02150F1
:1006000080409040E1F700C00000ABC0813009F0AD
:10061000A8C080910001813031F580E090E00E9417
:1006200013068093020190E09093890080938800E4
:1006300081E090E00E9413068093020190E0909385
:100640008B0080938A0082E090E00E9413068093E2
:1006500002018093B30083E090E00E941306809330
:1006600002018093B40080910001823031F584E072
:1006700090E00E9413068093020190E0909389001D
:100680008093880085E090E00E9413068093020129
:1006900090E090938B0080938A0086E090E00E9427
:1006A0001306809302018093B30087E090E00E94DC
:1006B0001306809302018093B4008091000183307F
:1006C00031F588E090E00E9413068093020190E0EB
:1006D000909389008093880089E090E00E9413063F
:1006E0008093020190E090938B0080938A008AE0CF
:1006F00090E00E941306809302018093B3008BE088
:1007000090E00E941306809302018093B4008091D0
:100710000001843031F58CE090E00E941306809354
:10072000020190E090938900809388008DE090E032
:100730000E9413068093020190E090938B008093B7
:100740008A008EE090E00E9413068093020180935D
:10075000B3008FE090E00E94130680930201809323
:10076000B400FF91EF91BF91AF919F918F917F91D5
:100770006F915F914F913F912F910F900FBE0F900E
:100780001F90189584B1866084B9E0E8F0E010828B
:10079000A1E8B0E01C9280818068808380818062C3
:1007A00080838081826080838C9188618C938C911E
:1007B00083608C9384E08093870081EE8093860031
:1007C00008959093890080938800089590938B00FA
:1007D00080938A00089584B1886084B98AB1886062
:1007E0008AB9E0EBF0E01082A1EBB0E01C928081CE
:1007F0008068808380818062808380818360808341
:100800008C9186608C9308958093B30008958093B3
:10081000B40008955058BB27AA270E9422040C94C4
:100820006C050E945E0538F00E94650520F039F4E1
:100830009F3F19F426F40C945B050EF4E095E7FB5A
:100840000C945505E92F0E947D0558F3BA176207ED
:1008500073078407950720F079F4A6F50C949F059B
:100860000EF4E0950B2EBA2FA02D0B01B9019001CB
:100870000C01CA01A0011124FF27591B99F0593F0F
:1008800050F4503E68F11A16F040A22F232F342F57
:100890004427585FF3CF469537952795A795F040A5
:1008A0005395C9F77EF41F16BA0B620B730B840BBA
:1008B000BAF09150A1F0FF0FBB1F661F771F881F72
:1008C000C2F70EC0BA0F621F731F841F48F48795CA
:1008D00077956795B795F7959E3F08F0B0CF9395BC
:1008E000880F08F09927EE0F9795879508950E9435
:1008F0008B040C946C050E94650558F00E945E05FF
:1009000040F029F45F3F29F00C94550551110C94E7
:10091000A0050C945B050E947D0568F39923B1F353
:10092000552391F3951B550BBB27AA276217730715
:10093000840738F09F5F5F4F220F331F441FAA1FA9
:10094000A9F335D00E2E3AF0E0E832D09150504065
:10095000E695001CCAF72BD0FE2F29D0660F771F13
:10096000881FBB1F261737074807AB07B0E809F0F9
:10097000BB0B802DBF01FF2793585F4F3AF09E3F7E
:10098000510578F00C9455050C94A0055F3FE4F3F5
:10099000983ED4F3869577956795B795F7959F5FC1
:1009A000C9F7880F911D9695879597F90895E1E00D
:1009B000660F771F881FBB1F621773078407BA076C
:1009C00020F0621B730B840BBA0BEE1F88F7E095C7
:1009D00008950E94850588F09F5798F0B92F9927B0
:1009E000B751B0F0E1F0660F771F881F991F1AF01A
:1009F000BA95C9F714C0B13091F00E949F05B1E0DB
:100A000008950C949F05672F782F8827B85F39F0D9
:100A1000B93FCCF3869577956795B395D9F73EF4B2
:100A200090958095709561957F4F8F4F9F4F08955A
:100A3000E89409C097FB3EF4909580957095619578
:100A40007F4F8F4F9F4F9923A9F0F92F96E9BB272E
:100A50009395F695879577956795B795F111F8CFAA
:100A6000FAF4BB0F11F460FF1BC06F5F7F4F8F4F15
:100A70009F4F16C0882311F096E911C0772321F00B
:100A80009EE8872F762F05C0662371F096E8862FA3
:100A900070E060E02AF09A95660F771F881FDAF7FA
:100AA000880F9695879597F9089597F99F6780E83D
:100AB00070E060E008959FEF80EC089500240A94B0
:100AC0001616170618060906089500240A94121629
:100AD0001306140605060895092E0394000C11F45C
:100AE000882352F0BB0F40F4BF2B11F460FF04C009
:100AF0006F5F7F4F8F4F9F4F089557FD9058440F62
:100B0000551F59F05F3F71F04795880F97FB991F6C
:100B100061F09F3F79F08795089512161306140629
:100B2000551FF2CF4695F1DF08C0161617061806B6
:100B3000991FF1CF86957105610508940895E89491
:100B4000BB2766277727CB0197F908950E94B9053F
:100B50000C946C050E945E0538F00E94650520F03B
:100B6000952311F00C9455050C945B0511240C94FD
:100B7000A0050E947D0570F3959FC1F3950F50E08D
:100B8000551F629FF001729FBB27F00DB11D639F3F
:100B9000AA27F00DB11DAA1F649F6627B00DA11DE5
:100BA000661F829F2227B00DA11D621F739FB00D8B
:100BB000A11D621F839FA00D611D221F749F3327FB
:100BC000A00D611D231F849F600D211D822F762F94
:100BD0006A2F11249F5750409AF0F1F088234AF071
:100BE000EE0FFF1FBB1F661F771F881F91505040DD
:100BF000A9F79E3F510580F00C9455050C94A00573
:100C00005F3FE4F3983ED4F3869577956795B79563
:100C1000F795E7959F5FC1F7FE2B880F911D96957D
:100C2000879597F90895F999FECF92BD81BDF89AFD
:100C3000992780B50895262FF999FECF1FBA92BD46
:100C400081BD20BD0FB6F894FA9AF99A0FBE0196AD
:060C50000895F894FFCFA7
:020C560001009B
:00000001FF
